{
  "_format": "hh-sol-artifact-1",
  "contractName": "Token",
  "sourceName": "contracts/Token.sol",
  "abi": [
    {
      "inputs": [],
      "stateMutability": "nonpayable",
      "type": "constructor"
    },
    {
      "anonymous": false,
      "inputs": [
        {
          "indexed": true,
          "internalType": "address",
          "name": "owner",
          "type": "address"
        },
        {
          "indexed": true,
          "internalType": "address",
          "name": "spender",
          "type": "address"
        },
        {
          "indexed": false,
          "internalType": "uint256",
          "name": "value",
          "type": "uint256"
        }
      ],
      "name": "Approval",
      "type": "event"
    },
    {
      "anonymous": false,
      "inputs": [
        {
          "indexed": true,
          "internalType": "address",
          "name": "from",
          "type": "address"
        },
        {
          "indexed": true,
          "internalType": "address",
          "name": "to",
          "type": "address"
        },
        {
          "indexed": false,
          "internalType": "uint256",
          "name": "value",
          "type": "uint256"
        }
      ],
      "name": "Transfer",
      "type": "event"
    },
    {
      "inputs": [
        {
          "internalType": "address",
          "name": "owner",
          "type": "address"
        },
        {
          "internalType": "address",
          "name": "spender",
          "type": "address"
        }
      ],
      "name": "allowance",
      "outputs": [
        {
          "internalType": "uint256",
          "name": "",
          "type": "uint256"
        }
      ],
      "stateMutability": "view",
      "type": "function"
    },
    {
      "inputs": [
        {
          "internalType": "address",
          "name": "spender",
          "type": "address"
        },
        {
          "internalType": "uint256",
          "name": "amount",
          "type": "uint256"
        }
      ],
      "name": "approve",
      "outputs": [
        {
          "internalType": "bool",
          "name": "",
          "type": "bool"
        }
      ],
      "stateMutability": "nonpayable",
      "type": "function"
    },
    {
      "inputs": [
        {
          "internalType": "address",
          "name": "account",
          "type": "address"
        }
      ],
      "name": "balanceOf",
      "outputs": [
        {
          "internalType": "uint256",
          "name": "",
          "type": "uint256"
        }
      ],
      "stateMutability": "view",
      "type": "function"
    },
    {
      "inputs": [],
      "name": "decimals",
      "outputs": [
        {
          "internalType": "uint8",
          "name": "",
          "type": "uint8"
        }
      ],
      "stateMutability": "view",
      "type": "function"
    },
    {
      "inputs": [
        {
          "internalType": "address",
          "name": "spender",
          "type": "address"
        },
        {
          "internalType": "uint256",
          "name": "subtractedValue",
          "type": "uint256"
        }
      ],
      "name": "decreaseAllowance",
      "outputs": [
        {
          "internalType": "bool",
          "name": "",
          "type": "bool"
        }
      ],
      "stateMutability": "nonpayable",
      "type": "function"
    },
    {
      "inputs": [
        {
          "internalType": "address",
          "name": "spender",
          "type": "address"
        },
        {
          "internalType": "uint256",
          "name": "addedValue",
          "type": "uint256"
        }
      ],
      "name": "increaseAllowance",
      "outputs": [
        {
          "internalType": "bool",
          "name": "",
          "type": "bool"
        }
      ],
      "stateMutability": "nonpayable",
      "type": "function"
    },
    {
      "inputs": [
        {
          "internalType": "uint256",
          "name": "_amount",
          "type": "uint256"
        }
      ],
      "name": "mint",
      "outputs": [],
      "stateMutability": "nonpayable",
      "type": "function"
    },
    {
      "inputs": [],
      "name": "name",
      "outputs": [
        {
          "internalType": "string",
          "name": "",
          "type": "string"
        }
      ],
      "stateMutability": "view",
      "type": "function"
    },
    {
      "inputs": [],
      "name": "symbol",
      "outputs": [
        {
          "internalType": "string",
          "name": "",
          "type": "string"
        }
      ],
      "stateMutability": "view",
      "type": "function"
    },
    {
      "inputs": [],
      "name": "totalSupply",
      "outputs": [
        {
          "internalType": "uint256",
          "name": "",
          "type": "uint256"
        }
      ],
      "stateMutability": "view",
      "type": "function"
    },
    {
      "inputs": [
        {
          "internalType": "address",
          "name": "to",
          "type": "address"
        },
        {
          "internalType": "uint256",
          "name": "amount",
          "type": "uint256"
        }
      ],
      "name": "transfer",
      "outputs": [
        {
          "internalType": "bool",
          "name": "",
          "type": "bool"
        }
      ],
      "stateMutability": "nonpayable",
      "type": "function"
    },
    {
      "inputs": [
        {
          "internalType": "address",
          "name": "from",
          "type": "address"
        },
        {
          "internalType": "address",
          "name": "to",
          "type": "address"
        },
        {
          "internalType": "uint256",
          "name": "amount",
          "type": "uint256"
        }
      ],
      "name": "transferFrom",
      "outputs": [
        {
          "internalType": "bool",
          "name": "",
          "type": "bool"
        }
      ],
      "stateMutability": "nonpayable",
      "type": "function"
    }
  ],
  "bytecode": "0x60806040523480156200001157600080fd5b506040518060400160405280600a81526020017f4f444f4e20544f4b454e000000000000000000000000000000000000000000008152506040518060400160405280600481526020017f4f444f4e000000000000000000000000000000000000000000000000000000008152508160039080519060200190620000969291906200028a565b508060049080519060200190620000af9291906200028a565b505050620000f833620000c7620000fe60201b60201c565b60ff16600a620000d891906200047a565b66038d7ea4c68000620000ec9190620005b7565b6200010760201b60201c565b620006ec565b60006012905090565b600073ffffffffffffffffffffffffffffffffffffffff168273ffffffffffffffffffffffffffffffffffffffff1614156200017a576040517f08c379a0000000000000000000000000000000000000000000000000000000008152600401620001719062000372565b60405180910390fd5b6200018e600083836200028060201b60201c565b8060026000828254620001a29190620003c2565b92505081905550806000808473ffffffffffffffffffffffffffffffffffffffff1673ffffffffffffffffffffffffffffffffffffffff1681526020019081526020016000206000828254620001f99190620003c2565b925050819055508173ffffffffffffffffffffffffffffffffffffffff16600073ffffffffffffffffffffffffffffffffffffffff167fddf252ad1be2c89b69c2b068fc378daa952ba7f163c4a11628f55a4df523b3ef8360405162000260919062000394565b60405180910390a36200027c600083836200028560201b60201c565b5050565b505050565b505050565b828054620002989062000622565b90600052602060002090601f016020900481019282620002bc576000855562000308565b82601f10620002d757805160ff191683800117855562000308565b8280016001018555821562000308579182015b8281111562000307578251825591602001919060010190620002ea565b5b5090506200031791906200031b565b5090565b5b80821115620003365760008160009055506001016200031c565b5090565b600062000349601f83620003b1565b91506200035682620006c3565b602082019050919050565b6200036c8162000618565b82525050565b600060208201905081810360008301526200038d816200033a565b9050919050565b6000602082019050620003ab600083018462000361565b92915050565b600082825260208201905092915050565b6000620003cf8262000618565b9150620003dc8362000618565b9250827fffffffffffffffffffffffffffffffffffffffffffffffffffffffffffffffff0382111562000414576200041362000658565b5b828201905092915050565b6000808291508390505b6001851115620004715780860481111562000449576200044862000658565b5b6001851615620004595780820291505b80810290506200046985620006b6565b945062000429565b94509492505050565b6000620004878262000618565b9150620004948362000618565b9250620004c37fffffffffffffffffffffffffffffffffffffffffffffffffffffffffffffffff8484620004cb565b905092915050565b600082620004dd5760019050620005b0565b81620004ed5760009050620005b0565b8160018114620005065760028114620005115762000547565b6001915050620005b0565b60ff84111562000526576200052562000658565b5b8360020a91508482111562000540576200053f62000658565b5b50620005b0565b5060208310610133831016604e8410600b8410161715620005815782820a9050838111156200057b576200057a62000658565b5b620005b0565b6200059084848460016200041f565b92509050818404811115620005aa57620005a962000658565b5b81810290505b9392505050565b6000620005c48262000618565b9150620005d18362000618565b9250817fffffffffffffffffffffffffffffffffffffffffffffffffffffffffffffffff04831182151516156200060d576200060c62000658565b5b828202905092915050565b6000819050919050565b600060028204905060018216806200063b57607f821691505b6020821081141562000652576200065162000687565b5b50919050565b7f4e487b7100000000000000000000000000000000000000000000000000000000600052601160045260246000fd5b7f4e487b7100000000000000000000000000000000000000000000000000000000600052602260045260246000fd5b60008160011c9050919050565b7f45524332303a206d696e7420746f20746865207a65726f206164647265737300600082015250565b61175b80620006fc6000396000f3fe608060405234801561001057600080fd5b50600436106100b45760003560e01c806370a082311161007157806370a08231146101a357806395d89b41146101d3578063a0712d68146101f1578063a457c2d71461020d578063a9059cbb1461023d578063dd62ed3e1461026d576100b4565b806306fdde03146100b9578063095ea7b3146100d757806318160ddd1461010757806323b872dd14610125578063313ce567146101555780633950935114610173575b600080fd5b6100c161029d565b6040516100ce9190611000565b60405180910390f35b6100f160048036038101906100ec9190610e02565b61032f565b6040516100fe9190610fe5565b60405180910390f35b61010f610352565b60405161011c9190611122565b60405180910390f35b61013f600480360381019061013a9190610db3565b61035c565b60405161014c9190610fe5565b60405180910390f35b61015d61038b565b60405161016a919061113d565b60405180910390f35b61018d60048036038101906101889190610e02565b610394565b60405161019a9190610fe5565b60405180910390f35b6101bd60048036038101906101b89190610d4e565b61043e565b6040516101ca9190611122565b60405180910390f35b6101db610486565b6040516101e89190611000565b60405180910390f35b61020b60048036038101906102069190610e3e565b610518565b005b61022760048036038101906102229190610e02565b610546565b6040516102349190610fe5565b60405180910390f35b61025760048036038101906102529190610e02565b610630565b6040516102649190610fe5565b60405180910390f35b61028760048036038101906102829190610d77565b610653565b6040516102949190611122565b60405180910390f35b6060600380546102ac9061141d565b80601f01602080910402602001604051908101604052809291908181526020018280546102d89061141d565b80156103255780601f106102fa57610100808354040283529160200191610325565b820191906000526020600020905b81548152906001019060200180831161030857829003601f168201915b5050505050905090565b60008061033a6106da565b90506103478185856106e2565b600191505092915050565b6000600254905090565b6000806103676106da565b90506103748582856108ad565b61037f858585610939565b60019150509392505050565b60006012905090565b60008061039f6106da565b9050610433818585600160008673ffffffffffffffffffffffffffffffffffffffff1673ffffffffffffffffffffffffffffffffffffffff16815260200190815260200160002060008973ffffffffffffffffffffffffffffffffffffffff1673ffffffffffffffffffffffffffffffffffffffff1681526020019081526020016000205461042e9190611174565b6106e2565b600191505092915050565b60008060008373ffffffffffffffffffffffffffffffffffffffff1673ffffffffffffffffffffffffffffffffffffffff168152602001908152602001600020549050919050565b6060600480546104959061141d565b80601f01602080910402602001604051908101604052809291908181526020018280546104c19061141d565b801561050e5780601f106104e35761010080835404028352916020019161050e565b820191906000526020600020905b8154815290600101906020018083116104f157829003601f168201915b5050505050905090565b6105433361052461038b565b60ff16600a610533919061121d565b8361053e919061133b565b610bba565b50565b6000806105516106da565b90506000600160008373ffffffffffffffffffffffffffffffffffffffff1673ffffffffffffffffffffffffffffffffffffffff16815260200190815260200160002060008673ffffffffffffffffffffffffffffffffffffffff1673ffffffffffffffffffffffffffffffffffffffff16815260200190815260200160002054905083811015610617576040517f08c379a000000000000000000000000000000000000000000000000000000000815260040161060e906110e2565b60405180910390fd5b61062482868684036106e2565b60019250505092915050565b60008061063b6106da565b9050610648818585610939565b600191505092915050565b6000600160008473ffffffffffffffffffffffffffffffffffffffff1673ffffffffffffffffffffffffffffffffffffffff16815260200190815260200160002060008373ffffffffffffffffffffffffffffffffffffffff1673ffffffffffffffffffffffffffffffffffffffff16815260200190815260200160002054905092915050565b600033905090565b600073ffffffffffffffffffffffffffffffffffffffff168373ffffffffffffffffffffffffffffffffffffffff161415610752576040517f08c379a0000000000000000000000000000000000000000000000000000000008152600401610749906110c2565b60405180910390fd5b600073ffffffffffffffffffffffffffffffffffffffff168273ffffffffffffffffffffffffffffffffffffffff1614156107c2576040517f08c379a00000000000000000000000000000000000000000000000000000000081526004016107b990611042565b60405180910390fd5b80600160008573ffffffffffffffffffffffffffffffffffffffff1673ffffffffffffffffffffffffffffffffffffffff16815260200190815260200160002060008473ffffffffffffffffffffffffffffffffffffffff1673ffffffffffffffffffffffffffffffffffffffff168152602001908152602001600020819055508173ffffffffffffffffffffffffffffffffffffffff168373ffffffffffffffffffffffffffffffffffffffff167f8c5be1e5ebec7d5bd14f71427d1e84f3dd0314c0f7b2291e5b200ac8c7c3b925836040516108a09190611122565b60405180910390a3505050565b60006108b98484610653565b90507fffffffffffffffffffffffffffffffffffffffffffffffffffffffffffffffff81146109335781811015610925576040517f08c379a000000000000000000000000000000000000000000000000000000000815260040161091c90611062565b60405180910390fd5b61093284848484036106e2565b5b50505050565b600073ffffffffffffffffffffffffffffffffffffffff168373ffffffffffffffffffffffffffffffffffffffff1614156109a9576040517f08c379a00000000000000000000000000000000000000000000000000000000081526004016109a0906110a2565b60405180910390fd5b600073ffffffffffffffffffffffffffffffffffffffff168273ffffffffffffffffffffffffffffffffffffffff161415610a19576040517f08c379a0000000000000000000000000000000000000000000000000000000008152600401610a1090611022565b60405180910390fd5b610a24838383610d1a565b60008060008573ffffffffffffffffffffffffffffffffffffffff1673ffffffffffffffffffffffffffffffffffffffff16815260200190815260200160002054905081811015610aaa576040517f08c379a0000000000000000000000000000000000000000000000000000000008152600401610aa190611082565b60405180910390fd5b8181036000808673ffffffffffffffffffffffffffffffffffffffff1673ffffffffffffffffffffffffffffffffffffffff16815260200190815260200160002081905550816000808573ffffffffffffffffffffffffffffffffffffffff1673ffffffffffffffffffffffffffffffffffffffff1681526020019081526020016000206000828254610b3d9190611174565b925050819055508273ffffffffffffffffffffffffffffffffffffffff168473ffffffffffffffffffffffffffffffffffffffff167fddf252ad1be2c89b69c2b068fc378daa952ba7f163c4a11628f55a4df523b3ef84604051610ba19190611122565b60405180910390a3610bb4848484610d1f565b50505050565b600073ffffffffffffffffffffffffffffffffffffffff168273ffffffffffffffffffffffffffffffffffffffff161415610c2a576040517f08c379a0000000000000000000000000000000000000000000000000000000008152600401610c2190611102565b60405180910390fd5b610c3660008383610d1a565b8060026000828254610c489190611174565b92505081905550806000808473ffffffffffffffffffffffffffffffffffffffff1673ffffffffffffffffffffffffffffffffffffffff1681526020019081526020016000206000828254610c9d9190611174565b925050819055508173ffffffffffffffffffffffffffffffffffffffff16600073ffffffffffffffffffffffffffffffffffffffff167fddf252ad1be2c89b69c2b068fc378daa952ba7f163c4a11628f55a4df523b3ef83604051610d029190611122565b60405180910390a3610d1660008383610d1f565b5050565b505050565b505050565b600081359050610d33816116f7565b92915050565b600081359050610d488161170e565b92915050565b600060208284031215610d6057600080fd5b6000610d6e84828501610d24565b91505092915050565b60008060408385031215610d8a57600080fd5b6000610d9885828601610d24565b9250506020610da985828601610d24565b9150509250929050565b600080600060608486031215610dc857600080fd5b6000610dd686828701610d24565b9350506020610de786828701610d24565b9250506040610df886828701610d39565b9150509250925092565b60008060408385031215610e1557600080fd5b6000610e2385828601610d24565b9250506020610e3485828601610d39565b9150509250929050565b600060208284031215610e5057600080fd5b6000610e5e84828501610d39565b91505092915050565b610e70816113a7565b82525050565b6000610e8182611158565b610e8b8185611163565b9350610e9b8185602086016113ea565b610ea4816114ad565b840191505092915050565b6000610ebc602383611163565b9150610ec7826114cb565b604082019050919050565b6000610edf602283611163565b9150610eea8261151a565b604082019050919050565b6000610f02601d83611163565b9150610f0d82611569565b602082019050919050565b6000610f25602683611163565b9150610f3082611592565b604082019050919050565b6000610f48602583611163565b9150610f53826115e1565b604082019050919050565b6000610f6b602483611163565b9150610f7682611630565b604082019050919050565b6000610f8e602583611163565b9150610f998261167f565b604082019050919050565b6000610fb1601f83611163565b9150610fbc826116ce565b602082019050919050565b610fd0816113d3565b82525050565b610fdf816113dd565b82525050565b6000602082019050610ffa6000830184610e67565b92915050565b6000602082019050818103600083015261101a8184610e76565b905092915050565b6000602082019050818103600083015261103b81610eaf565b9050919050565b6000602082019050818103600083015261105b81610ed2565b9050919050565b6000602082019050818103600083015261107b81610ef5565b9050919050565b6000602082019050818103600083015261109b81610f18565b9050919050565b600060208201905081810360008301526110bb81610f3b565b9050919050565b600060208201905081810360008301526110db81610f5e565b9050919050565b600060208201905081810360008301526110fb81610f81565b9050919050565b6000602082019050818103600083015261111b81610fa4565b9050919050565b60006020820190506111376000830184610fc7565b92915050565b60006020820190506111526000830184610fd6565b92915050565b600081519050919050565b600082825260208201905092915050565b600061117f826113d3565b915061118a836113d3565b9250827fffffffffffffffffffffffffffffffffffffffffffffffffffffffffffffffff038211156111bf576111be61144f565b5b828201905092915050565b6000808291508390505b6001851115611214578086048111156111f0576111ef61144f565b5b60018516156111ff5780820291505b808102905061120d856114be565b94506111d4565b94509492505050565b6000611228826113d3565b9150611233836113d3565b92506112607fffffffffffffffffffffffffffffffffffffffffffffffffffffffffffffffff8484611268565b905092915050565b6000826112785760019050611334565b816112865760009050611334565b816001811461129c57600281146112a6576112d5565b6001915050611334565b60ff8411156112b8576112b761144f565b5b8360020a9150848211156112cf576112ce61144f565b5b50611334565b5060208310610133831016604e8410600b841016171561130a5782820a9050838111156113055761130461144f565b5b611334565b61131784848460016111ca565b9250905081840481111561132e5761132d61144f565b5b81810290505b9392505050565b6000611346826113d3565b9150611351836113d3565b9250817fffffffffffffffffffffffffffffffffffffffffffffffffffffffffffffffff048311821515161561138a5761138961144f565b5b828202905092915050565b60006113a0826113b3565b9050919050565b60008115159050919050565b600073ffffffffffffffffffffffffffffffffffffffff82169050919050565b6000819050919050565b600060ff82169050919050565b60005b838110156114085780820151818401526020810190506113ed565b83811115611417576000848401525b50505050565b6000600282049050600182168061143557607f821691505b602082108114156114495761144861147e565b5b50919050565b7f4e487b7100000000000000000000000000000000000000000000000000000000600052601160045260246000fd5b7f4e487b7100000000000000000000000000000000000000000000000000000000600052602260045260246000fd5b6000601f19601f8301169050919050565b60008160011c9050919050565b7f45524332303a207472616e7366657220746f20746865207a65726f206164647260008201527f6573730000000000000000000000000000000000000000000000000000000000602082015250565b7f45524332303a20617070726f766520746f20746865207a65726f20616464726560008201527f7373000000000000000000000000000000000000000000000000000000000000602082015250565b7f45524332303a20696e73756666696369656e7420616c6c6f77616e6365000000600082015250565b7f45524332303a207472616e7366657220616d6f756e742065786365656473206260008201527f616c616e63650000000000000000000000000000000000000000000000000000602082015250565b7f45524332303a207472616e736665722066726f6d20746865207a65726f20616460008201527f6472657373000000000000000000000000000000000000000000000000000000602082015250565b7f45524332303a20617070726f76652066726f6d20746865207a65726f2061646460008201527f7265737300000000000000000000000000000000000000000000000000000000602082015250565b7f45524332303a2064656372656173656420616c6c6f77616e63652062656c6f7760008201527f207a65726f000000000000000000000000000000000000000000000000000000602082015250565b7f45524332303a206d696e7420746f20746865207a65726f206164647265737300600082015250565b61170081611395565b811461170b57600080fd5b50565b611717816113d3565b811461172257600080fd5b5056fea2646970667358221220cf2d128a226cffe599eabab3d127bbbee184c8005504d71c84ea9be2239038fd64736f6c63430008040033",
  "linkReferences": {},
  "deployedLinkReferences": {}
}